:020000040800F2
:10000000F806002045010008B90900084F0700085C
:10001000B5090008250200081914000800000000B6
:10002000000000000000000000000000A112000815
:10003000F9050008000000006D110008B513000864
:100040005F0100085F0100085F0100085F01000810
:100050005F0100085F0100085F0100085F01000800
:100060005F0100085F0100085F0100085F010008F0
:100070005F0100085F0100085F0100085F010008E0
:100080005F0100085F0100085F0100085F010008D0
:100090005F0100085F0100085F0100085F010008C0
:1000A0005F0100085F0100085F0100085F010008B0
:1000B0005F0100085F0100085F0100085F010008A0
:1000C0005F0100085F0100085F0100085F01000890
:1000D0005F0100085F0100085F0100085F01000880
:1000E0005F0100085F0100085F0100085F01000870
:1000F0005F0100085F0100085F0100085F01000860
:100100005F0100085F0100085F0100085F0100084F
:100110005F0100085F0100085F0100085F0100083F
:100120005F0100085F0100085F0100085F0100082F
:10013000DFF80CD000F022F800480047A1170008B3
:10014000F80600200648804706480047FEE7FEE71D
:10015000FEE7FEE7FEE7FEE7FEE7FEE7FEE7FEE777
:10016000B913000831010008CAB2401E10F8011F7F
:100170008A4202D00029F9D100207047064C074D71
:1001800006E0E06840F0010394E807009847103467
:10019000AC42F6D3FFF7D0FF302700085027000805
:1001A00070B58C1810F8015B15F0070301D110F839
:1001B000013B2A1106D110F8012B03E010F8016B66
:1001C00001F8016B5B1EF9D12B0705D40023521EE9
:1001D0000DD401F8013BFAE710F8013BCB1A921C51
:1001E00003E013F8015B01F8015B521EF9D5A1424F
:1001F000D8D3002070BD000008B50121082000F010
:10020000B7FF4FF48050ADF8000014208DF80300C4
:1002100003208DF802006946014800F0FBF908BD93
:10022000000C014000BFFEE708B50121082000F0E6
:100230009FFF4FF40050ADF8000010208DF8030030
:1002400003208DF802006946044800F0E3F94FF4FA
:100250000051024800F074FA08BD0000000C014093
:1002600008B54FF40050ADF8000048208DF80300A9
:100270006946024800F0CEF908BD0000000C0140BC
:1002800008B54FF40050ADF8000010208DF80300C1
:1002900003208DF802006946014800F0BBF908BD53
:1002A000000C014008B50121082000F061FF40F674
:1002B0000240ADF8000003208DF8020010208DF8F8
:1002C00003006946014800F0A5F908BD000C014093
:1002D00038B50446012C0DD10220ADF800000320F2
:1002E0008DF8020010208DF803006946094800F0DF
:1002F00091F90DE064B90220ADF8000003208DF8FB
:10030000020048208DF803006946024800F082F997
:1003100038BD0000000C01402DE9F0470646374685
:100320004FF400602F490860002519E007F0010034
:1003300018B102202B49086003E002202949091D59
:1003400008607F104FF4806026490860022000F0AA
:1003500027F94FF480602349091D0860681CC5B265
:10036000082DE3DB0020FFF7B3FF002519E0641040
:1003700002211C48103800F0D8F910B144F0800474
:1003800001E004F07F044FF4806016490860022009
:1003900000F006F94FF480601249091D0860681CDE
:1003A000C5B2082DE3DB4FF400600E49091D08605B
:1003B0000120FFF78DFF2046E11704EB1171C1F317
:1003C0000718E11704EB11710911A4EB011101F0F9
:1003D000FF0908EB880009EB400000F0FF0A5046D7
:1003E000BDE8F087100C014010B58D20FFF794FF99
:1003F0000D4908708920FFF78FFF0B49487087204F
:10040000FFF78AFF084988708520FFF785FF0649B6
:10041000C8708320FFF780FF034908718120FFF730
:100420007BFF0149487110BD0500002030B504462E
:1004300000218E2000F066F860790A2190FBF1F22D
:1004400001FB12010A2290FBF2F001EB0010C5B291
:100450002946802000F056F820790A2190FBF1F21D
:1004600001FB12010A2290FBF2F001EB0010C5B271
:100470002946822000F046F8E0780A2190FBF1F24C
:1004800001FB12010A2290FBF2F001EB0010C5B251
:100490002946842000F036F8A0780A2190FBF1F27A
:1004A00001FB12010A2290FBF2F001EB0010C5B231
:1004B0002946862000F026F860780A2190FBF1F2A8
:1004C00001FB12010A2290FBF2F001EB0010C5B211
:1004D0002946882000F016F820780A2190FBF1F2D6
:1004E00001FB12010A2290FBF2F001EB0010C5B2F1
:1004F00029468C2000F006F880218E2000F002F8BA
:1005000030BD0000F0B504460D4626462F464FF498
:10051000006022490860002319E006F0010018B1CC
:1005200002201E49086003E002201C49091D0860E2
:1005300076104FF4806019490860022000F030F80E
:100540004FF480601549091D0860581CC3B2082B80
:10055000E3DB002319E007F0010018B102200F4986
:10056000086003E002200D49091D08607F104FF468
:1005700080600A490860022000F012F84FF48060A1
:100580000649091D0860581CC3B2082BE3DB4FF471
:1005900000600249091D0860F0BD0000100C014018
:1005A00007E06E2101E04A1ED1B20029FBDC421EA9
:1005B000D0B20028F5DC704710B50446FFF772FE94
:1005C0000220FFF7EDFF4FF400600A490860401079
:1005D000086000218E20FFF795FF8120FFF79CFE29
:1005E00000F0800010B12046FFF720FF2046FFF703
:1005F0001DFF10BD140C014070470000044900E0CD
:10060000521C11F8013B002BFAD150087047000032
:10061000E00200202DE9F0410246002500260020DE
:1006200000230024002791F803C00CF00F0591F877
:1006300003C00CF0100CBCF1000F03D091F802C005
:100640004CEA050591F800C0BCF1000F31D01468E8
:1006500000202BE04FF0010C0CFA00F3B1F800C0C1
:100660000CEA03069E4220D183004FF00F0C0CFAD7
:1006700003F7BC4305FA03FC4CEA040491F803C0F9
:10068000BCF1280F06D14FF0010C0CFA00FCC2F8A7
:1006900014C00AE091F803C0BCF1480F05D14FF037
:1006A000010C0CFA00FCC2F810C0401C0828D1D381
:1006B0001460B1F800C0BCF1FF0F34DD54680020B5
:1006C0002EE000F1080C4FF0010808FA0CF3B1F825
:1006D00000C00CEA03069E4221D183004FF00F0CAC
:1006E0000CFA03F7BC4305FA03FC4CEA040491F846
:1006F00003C0BCF1280F05D100F1080C08FA0CF872
:10070000C2F8148091F803C0BCF1480F07D100F182
:10071000080C4FF0010808FA0CF8C2F81080401CD1
:100720000828CED35460BDE8F081024600209368CB
:100730000B400BB1012000E0002070474161704781
:10074000016170470AB1016100E04161704700BF7B
:10075000FEE7002001E0411CC8B20A28FBDB70471D
:1007600008B50121082000F003FD8020ADF800004D
:1007700003208DF8020014208DF803006946064816
:10078000FFF748FF4020ADF8000069460248FFF738
:1007900041FF00F01DF808BD000C014010B501201C
:1007A000094908600949C1F89C01FFF7D2FF002000
:1007B00005490860FFF7CDFF00200449C1F89C01FE
:1007C000FFF7C7FF10BD0000988121420080214241
:1007D00010B500200549086001200549C1F89C01B9
:1007E000FFF7B7FF01200149086010BD9881214241
:1007F0000080214210B501200C490860FFF7A9FFD5
:1008000001200B49C1F89C01FFF7A3FF40210948D3
:10081000FFF78BFF08B1012400E00024002003490A
:10082000091D0860FFF795FF204610BD9881214201
:1008300000802142000C014010B510212C48FFF728
:100840007DFF20212A48FFF77BFF40212848FFF742
:1008500077FF80212648FFF773FF00F06DF804460C
:1008600020212348FFF76AFF10212148FFF768FF86
:1008700040211F48FFF764FF80211D48FFF760FFFC
:1008800000F05AF818B100F057F8001DC4B240212A
:100890001748FFF753FF10211548FFF751FF20219C
:1008A0001348FFF74DFF80211148FFF749FF00F083
:1008B00043F818B100F040F80830C4B280210C4869
:1008C000FFF73CFF10210A48FFF73AFF20210848B4
:1008D000FFF736FF40210648FFF732FF00F02CF803
:1008E00018B100F029F80C30C4B2204610BD000049
:1008F0000008014008B50121042000F039FC102057
:100900008DF80300F020ADF8000003208DF8020000
:1009100069460848FFF77EFE48208DF803000F2047
:10092000ADF8000003208DF8020069460148FFF78A
:1009300071FE08BD0008014010B5002401211C48CB
:10094000FFF7F3FE40B9192000F0F2FD012118482D
:10095000FFF7EBFE00B9042402211548FFF7E5FE7E
:1009600040B9192000F0E4FD02211148FFF7DDFE37
:1009700000B9032404210E48FFF7D7FE40B919201F
:1009800000F0D6FD04210A48FFF7CFFE00B902248B
:1009900008210748FFF7C9FE40B9192000F0C8FD3B
:1009A00008210348FFF7C1FE00B90124204610BD0D
:1009B0000008014000BFFEE7704710B5002000F0BE
:1009C00064F810BD70B506460D4600242946304631
:1009D00000F0C0F900BF04E0002000F061FD601CE1
:1009E000C4B2102CF8DB681CC1B2304600F0B2F97A
:1009F000002404E0002000F053FD601CC4B2102C61
:100A0000F8DB70BD70B506460D4600242946304619
:100A100000F0A0F900BF04E0002000F041FD601CE0
:100A2000C4B2182CF8DB681CC1B2304600F092F951
:100A3000002404E0002000F033FD601CC4B2182C38
:100A4000F8DBA81CC1B2304600F084F9002404E0B1
:100A5000002000F025FD601CC4B2182CF8DB70BD2E
:100A600070B500240EE00021204600F062F9002558
:100A700004E0002000F06AFB681CC5B2802DF8DBA2
:100A8000601CC4B2082CEEDB70BD70B506460024B5
:100A900015E004F1B001C8B200F0ECFC002000F059
:100AA000E9FC102000F0E6FC002504E0304600F0F0
:100AB000F7FC681CC5B2822DF8DB601CC4B2082CA0
:100AC000E7DB70BD08B50121082000F051FB1420C0
:100AD0008DF8030003208DF802008020ADF800009F
:100AE00069460A48FFF796FD4020ADF800006946C8
:100AF0000648FFF78FFD012280210448FFF722FE00
:100B0000012240210148FFF71DFE08BD000C0140F5
:100B100070B50546002413E08020204100EA05025C
:100B200040210E48FFF70EFE012280210B48FFF7FF
:100B300009FE002280210948FFF704FE601CC4B2B0
:100B4000082CE9DB012280210448FFF7FBFD00228D
:100B500080210248FFF7F6FD70BD0000000C014047
:100B600010B5012240210948FFF7ECFD0122802148
:100B70000648FFF7E7FD002240210448FFF7E2FDA9
:100B8000002280210148FFF7DDFD10BD000C01406F
:100B900010B5002240210748FFF7D4FD0122802133
:100BA0000448FFF7CFFD012240210248FFF7CAFDAC
:100BB00010BD0000000C014010B5FFF71FFD2B49D0
:100BC0000860FFF7CDFDAE2000F054FC002000F0DF
:100BD00051FC102000F04EFC402000F04BFCB020F7
:100BE00000F048FC812000F045FCFF2000F042FCB2
:100BF000A12000F03FFCA62000F03CFCA82000F063
:100C000039FC3F2000F036FCC82000F033FCD32034
:100C100000F030FC002000F02DFCD52000F02AFC74
:100C2000802000F027FCD82000F024FC052000F0F4
:100C300021FCD92000F01EFCF12000F01BFCDA2082
:100C400000F018FC122000F015FCDB2000F012FC74
:100C5000302000F00FFC8D2000F00CFC142000F080
:100C600009FCAF2000F006FC10BD0000F4020020DB
:100C700070B5002406E0002500E06D1CB5F57A7F14
:100C8000FBD3641CB4F57A7FF5D3FFF71BFFAE20CE
:100C900000F04CFAD52000F049FA802000F046FA26
:100CA000A82000F043FA3F2000F040FAD32000F0E3
:100CB0003DFA002000F03AFA402000F037FAA12077
:100CC00000F034FAC82000F031FADA2000F02EFAF1
:100CD000122000F02BFA812000F028FACF2000F03B
:100CE00025FAD92000F022FAF12000F01FFADB20CB
:100CF00000F01CFA302000F019FAA42000F016FAD7
:100D0000A62000F013FA8D2000F010FA142000F055
:100D10000DFAAF2000F00AFAFFF7A2FE70BD10B581
:100D20000246012000E050430B1EA1F10101FAD15F
:100D300010BD70B505460C4645F0B00000F0F6F960
:100D4000102141EA141000F0F1F904F00F0000F056
:100D5000EDF970BD70B504460D4605F1B001C8B29D
:100D600000F088FBA11CC1F3031141F0100000F05A
:100D700081FBA11C01F00F0141F0010000F07AFBA2
:100D800070BD00002DE9F04707468846164600254D
:100D900080E03078A02843DD00253AE0702F04DDA4
:100DA000002708F1020000F0FF0830783C4911F8F4
:100DB000151088422CD17078012101EB4501384A89
:100DC000515C884224D141463846FFF7C3FF0024D6
:100DD00006E004EB4511334A505C00F061FB641CF3
:100DE000102CF6D308F10100C1B23846FFF7B2FF6C
:100DF000002407E004EB451110312A4A505C00F052
:100E00004FFB641C102CF5D307F11000C7B204E0AF
:100E10006D1C254800688542C0D300BFB61C39E070
:100E20007A2F04DD002708F1020000F0FF08317876
:100E30001E48FFF799F98146B9F1000F29D04146C4
:100E40003846FFF787FF002409E099F800102039A1
:100E500004EB0111164A505C00F022FB641C082CC4
:100E6000F3D308F10100C1B23846FFF773FF002445
:100E70000AE099F80010203904EB011108310C4AFE
:100E8000505C00F00DFB641C082CF2D307F1080045
:100E9000C7B2761C307800287FF47BAFBDE8F087BE
:100EA000E002002080020020F4020020E70200207F
:100EB000340000202DE9F04107460E4690460025FB
:100EC0000024A8F13000C5B2812F02DD0027B01C3C
:100ED000C6B231463846FFF73DFF002407E004EB79
:100EE00005110E4A505C00F0DBFA601CC4B2082CFD
:100EF000F5DB701CC1B23846FFF72CFF002408E078
:100F000004EB05110831054A505C00F0C9FA601C79
:100F1000C4B2082CF4DBBDE8F081000034000020EE
:100F20002DE9F04107460D46904600260024A8F121
:100F30003000C6B2812F02DD0027A81CC5B22946A9
:100F40003846FFF707FF002409E006EBC60104EB73
:100F50008101194A505C00F0A3FA601CC4B20C2C49
:100F6000F3DB681CC1B23846FFF7F4FE00240AE048
:100F700006EBC60104EB81010C310F4A505C00F016
:100F80008FFA601CC4B20C2CF2DBA81CC1B238462C
:100F9000FFF7E0FE00240AE006EBC60104EB810146
:100FA0001831054A505C00F07BFA601CC4B20C2C6E
:100FB000F2DBBDE8F0810000F40000202DE9F041F3
:100FC00005460E461746721ED206110E6A1E5206BE
:100FD000100EFFF7AEFE002409E0A7F12001134A2E
:100FE00002EB0111085D00F0B1F8601CC4B2082CDE
:100FF000F3DB721ED206110E6A1E012303EB4202BE
:10100000D0B2FFF796FE00240BE0A7F12001074ABB
:1010100002EB011204F10801505C00F097F8601C2B
:10102000C4B2082CF1DBBDE8F081000040210008CB
:101030002DE9F05F0546894690461E46DDF828A05A
:101040004FF0000B002437E0301B401EC1B20A20D5
:1010500000F02AFFB8FBF0F00A21B0FBF1F201FB2F
:101060001207BBF1000F1AD1701EA04217DDA7B9FD
:10107000BAF1000F08D0082101FB0451C8B2302298
:101080004946FFF717FF07E0082101FB0451C8B2EA
:1010900020224946FFF70EFF0CE04FF0010B07F14D
:1010A0003001CAB2082101FB0451C8B24946FFF71A
:1010B00001FF00BF601CC4B2B442C5DBBDE8F09FB5
:1010C0002DE9F04780460E4617461D46002415E0E0
:1010D000281B411E0A20FFF722FEB7FBF0F00A2171
:1010E000B0FBF1F201FB120000F130093019C1B27E
:1010F0004A464046FFF762FF601CC4B2AC42E7DBE1
:10110000BDE8F0872DE9F04107460E46154600245C
:1011100007E02A5D3019C1B23846FFF74FFF601C67
:10112000C4B2285D0028F4D1BDE8F08110B50446B2
:10113000FFF716FD7820FFF7EBFC0020FFF7E8FC37
:101140002046FFF7E5FCFFF723FD10BD10B5044670
:10115000FFF706FD7820FFF7DBFC4020FFF7D8FC07
:101160002046FFF7D5FCFFF713FD10BD70470000C8
:1011700029B1064A92690243044B9A6104E0034A8A
:1011800092698243014B9A6170470000001002404F
:1011900070B50025002427E000BF4FF4005114482B
:1011A000FFF7C3FA0028F8D0282000F0E7F94FF441
:1011B00000510F48FFF7B9FA01280ED100BF4FF4D4
:1011C00000510B48FFF7B1FA0128F8D0C4F107012C
:1011D00001208840C0B2054304E0C4F107010120AA
:1011E00088408543601CC4B2082CD5DB284670BDFE
:1011F000000C014010B50446FFF742F84FF40051CF
:101200002648FFF79BFA122000F092F94FF40051A4
:101210002248FFF795FA1E2000F0B0F9FFF720F8FA
:101220004FF400511D48FFF780FA88BB00BF4FF410
:1012300000511A48FFF779FA0028F8D000BF4FF4A0
:1012400000511648FFF771FA0128F8D0FFF7A0FF08
:101250002070FFF79DFF6070FFF79AFFA070FFF707
:1012600097FFE070FFF794FF2071FFF709F84FF444
:1012700000510A48FFF764FA207861780844A178A1
:101280000844E17808442179884202D1012010BD48
:1012900001E00020FBE70020F9E70000000C01401E
:1012A000704710B500F002F810BD00000CB500202A
:1012B000019000903348006840F480303149086064
:1012C00000BF3048006800F4003000900198401CD6
:1012D0000190009818B90198B0F5A06FF1D1294894
:1012E000006800F4003010B10120009001E00020FF
:1012F00000900098012843D12348006840F0100076
:10130000214908600846006820F00300086008468C
:10131000006840F0020008601A48406819494860B7
:101320000846406848600846406840F4806048606D
:101330000846406820F47C1048600846406840F445
:10134000E81048600846006840F08070086000BF00
:101350000C48006800F000700028F9D00948406887
:1013600020F00300074948600846406840F002004A
:10137000486000BF0348406800F00C000828F9D11D
:101380000CBD00000010024000200240042808D1DB
:101390004FF0E021096941F004014FF0E0221161B2
:1013A00007E04FF0E021096921F004014FF0E0224D
:1013B000116170477047000010B51348006840F095
:1013C00001001149086008464068104908400E496C
:1013D0004860084600680E4908400B490860084606
:1013E000006820F4802008600846406820F4FE0071
:1013F00048604FF41F008860FFF753FF4FF0006014
:101400000449086010BD0000001002400000FFF811
:10141000FFFFF6FE08ED00E000BFFEE770B50446F2
:10142000002520E004F0800018B101200F49086079
:1014300002E000200D490860FFF78BF901200B49FD
:10144000091D0860FFF785F900200949C1F89C01D2
:10145000072D02D10120054908606006040EFFF740
:1014600078F9681CC5B2082DDCDB70BD988121427B
:101470000080214210B50446FFF790F97820FFF76D
:10148000CDFFFFF7B7F90020FFF7C8FFFFF7B2F96C
:101490002046FFF7C3FFFFF7ADF9FFF799F910BD3D
:1014A00010B50446FFF77AF97820FFF7B7FFFFF78A
:1014B000A1F94020FFF7B2FFFFF79CF92046FFF7A4
:1014C000ADFFFFF797F9FFF783F910BD02E008C8F9
:1014D000121F08C1002AFAD170477047002001E0AE
:1014E00001C1121F002AFBD17047000010B56FF038
:1014F0000400FFF74BFF0A4800680A49B0FBF1F00F
:10150000094908700846007800EB4001C1EBC010A3
:101510004FF6FF7101EAC0000449088010BD0000C9
:101520002000002000127A001A0000201C00002079
:101530000146114A12884A434FF0E0235A610022C3
:101540009A611A46126942F001021A6100BF4FF017
:10155000E022106900F001021AB100F48032002A82
:10156000F5D04FF0E022126922F001024FF0E023A3
:101570001A6100229A6170471C0000200146114A3E
:1015800012784A434FF0E0235A6100229A611A46CA
:10159000126942F001021A6100BF4FF0E0221069A7
:1015A00000F001021AB100F48032002AF5D04FF0A9
:1015B000E022126922F001024FF0E0231A610022BA
:1015C0009A6170471A00002070B505460E46144611
:1015D000062C22D2DFE804F003080D12171C314656
:1015E000284600F09DF819E03146284600F058F8EA
:1015F00014E03146284600F033F80FE03146284623
:1016000000F00EF80AE03146284600F069F805E0DF
:101610003146284600F0A4F800E000BF00BF70BDCE
:1016200070B504460D46B5B10A2094FBF0F0303099
:10163000C6B2324600215820FFF73CFC0A2094FB3A
:10164000F0F100FB11403030C6B23246002160207C
:10165000FFF730FC03E000215820FFF7B3F970BD1D
:1016600070B504460D46B5B10A2094FBF0F0303059
:10167000C6B2324603211020FFF752FC0A2094FB29
:10168000F0F100FB11403030C6B2324603211C207D
:10169000FFF746FC03E003211020FFF7B3F970BD0C
:1016A00070B504460D46B5B10A2094FBF0F0303019
:1016B000C6B2324603213420FFF732FC0A2094FBE5
:1016C000F0F100FB11403030C6B232460321402019
:1016D000FFF726FC03E003213420FFF793F970BDE8
:1016E00070B504460D46B5B10A2094FBF0F03030D9
:1016F000C6B2324600213820FFF7DCFB0A2094FBFB
:10170000F0F100FB11403030C6B2324600214020DB
:10171000FFF7D0FB03E000213820FFF753F970BD3D
:1017200070B504460D46B5B10A2094FBF0F0303098
:10173000C6B2324603215820FFF7F2FB0A2094FB81
:10174000F0F100FB11403030C6B232460321642074
:10175000FFF7E6FB03E003215820FFF753F970BDC4
:1017600070B504460D46B5B10A2094FBF0F0303058
:10177000C6B2324600211820FFF79CFB0A2094FBDA
:10178000F0F100FB11403030C6B23246002120207B
:10179000FFF790FB03E000211820FFF713F970BD5D
:1017A0009AB00020199018901790169015901490E8
:1017B00013901290119010900F900E900D900C902D
:1017C0000B900A90099082460027834600240890D7
:1017D000079006900590049080468146039000256E
:1017E0000026FDA103C9CDE90101FFF77FFE3220EC
:1017F000FFF79EFEFEF700FDFFF77CF8FFF7DCF930
:10180000FFF736FA01A8FEF7D7FEFEF70DFDFFF74A
:10181000D4F8002002231422014600900820FFF78C
:1018200007FCEFA200212820FFF7ACFAEDA200216F
:101830004820FFF7A7FAECA200216820FFF7A2FAE0
:101840000020EA49086011E3002002231422014627
:1018500000900820FFF7ECFBE1A200212820FFF711
:1018600091FAE0A200214820FFF78CFADEA20021C5
:101870006820FFF787FAFEF7DFFF0A287ED2DFE84D
:1018800000F07D055157B8B9BAFCFBFA0120199058
:10189000FEF7AAFDD64800F061FB3FE0C5F1050167
:1018A000D34A505C2A460021FFF78EFE3220FFF714
:1018B0003FFEC5F10501CE4A505C2A460121FFF7E3
:1018C00083FEFEF7B9FF062826D2DFE800F02503E5
:1018D0000910111BC648FEF7A9FD002019901CE055
:1018E0002846691CCDB2042800DD002515E014E06F
:1018F000C5F10500BE49085C401CC5F10501BC4AA4
:1019000050540AE0C5F10500B949085C401EC5F114
:101910000501B74A505400E000BF00BF19980028E5
:10192000BCD16AE20020B3490870B049086064E2A3
:1019300001201890B04908780121FFF791FEAE49C7
:1019400048780121FFF7ACFEAB4988780121FFF709
:10195000E7FE4AE0C6F10201A74A505C3246002188
:10196000FFF732FE3220FFF7E3FDC6F10201A24A83
:10197000505C32460121FFF727FE00E03CE2FEF713
:101980005BFF06282FD2DFE800F02E0310171A2481
:101990009A48007808B9012000E0002097490870B3
:1019A0000846007800F08CFA1EE03046711CCEB27A
:1019B000012800DD002617E00020189014E0C6F191
:1019C00002008D49085C401CC6F102018A4A50544D
:1019D0000AE0C6F102008849085C401EC6F1020117
:1019E000854A505400E000BF00BF18980028B1D1CC
:1019F00003E202E201E2012016900AE07C48C0788E
:101A000014907B4800791390794840791290012016
:101A1000179017980028F1D04EE07548C1781498B7
:101A2000081A1190724801791398081A109070489A
:101A300041791298081A0F900F98002805DA10982B
:101A4000401E10900F983C300F901098002805DA37
:101A50001198401E119010983C30109068491198D0
:101A60000870109848700F988870FEF7BDFC6448A5
:101A700000F011FB02E079E110E121E0FEF7DCFE6D
:101A8000012805D0062815D100201690179012E0E5
:101A90000120159009E05A4800F0FDFAFEF7CCFE4F
:101AA000022802D10020159002E015980128F2D0FA
:101AB00000BF00E000BF00BF16980128ADD09CE138
:101AC00001200E904F4908780121FFF7C9FD4D49CB
:101AD00048780121FFF7E4FD4A4988780121FFF7A2
:101AE0001FFED6E0C4F10201464A505C22460021A6
:101AF000FFF76AFD3220FFF71BFDC4F10201414AE6
:101B0000505C22460121FFF75FFDFEF795FE062897
:101B100061D2DFE800F0BC039EA5A8B201200D90C1
:101B200018E0FEF761FC374800783149C97808446D
:101B3000C0B20B90334840782D4909790844C0B2AF
:101B40000A90304880782A4949790844C0B20990FF
:101B500001200C900C980028E3D076E02448C1784E
:101B60000B98A0EB010A224801790A98471A2048ED
:101B700041790998A0EB010BBBF1000F02DA7F1E3F
:101B80000BF13C0B002F02DAAAF1010A3C37BBF142
:101B90003C0F02DBABF13C0B7F1C3C2F02DB3C3FDC
:101BA0000AF1010ABAF1180F01DBAAF1180A154966
:101BB00081F800A04F7081F802B0FEF715FC1148C3
:101BC00000F069FAFEF738FE032803D100200E90DA
:101BD0000D900C902EE05AE018090714000F000039
:101BE000C4EA0000D4C20000C8D50000B081214280
:101BF00005000020180000200B0000201700002026
:101C00000E000020110000209948006808B901204A
:101C100000E00020964908600120FFF789FCFEF7EC
:101C20000BFE072806D100200E900D900C909049D5
:101C3000086009E08F48007830B98E48407818B9BC
:101C40008C4880780028DFD000BF0D98012885D00F
:101C50001EE02046611CCCB2012800DD002417E004
:101C600000200E9014E0C4F102008249085C401C80
:101C7000C4F102017F4A50540AE0C4F102007D49D8
:101C8000085C401EC4F102017A4A505400E000BFD3
:101C900000BF0E9800287FF425AFAEE00120089029
:101CA00012E0FEF7A1FB7448C0784006000E0690D3
:101CB000714800794006000E05906F484079400653
:101CC000000E04900120079007980028E9D049E011
:101CD0006948C1780698A0EB010867480179059822
:101CE000A0EB0109644841790498401A03900398D5
:101CF000002804DAA9F1010903983C300390B9F1F6
:101D0000000F03DAA8F1010809F13C09B8F1000F4E
:101D100001DA08F1180803983C2804DB03983C38E2
:101D2000039009F10109B9F13C0F03DBA9F13C096A
:101D300008F10108B8F1180F01DBA8F118084F49A4
:101D400081F8008081F8019003988870FEF74CFBC1
:101D50004A4800F0A0F9FEF76FFD082802D10020E4
:101D60000790089008980128B2D046E041E0FEF7BD
:101D700077FE43A201210846FFF7C4F942A20121E0
:101D80000220FFF7BFF931E04248FFF733FA01289C
:101D900025D14048027802230A211846FFF790F91E
:101DA0003DA20C210220FFF7ADF93A484278022308
:101DB0000D211846FFF784F9364882780223062160
:101DC0000120FFF77DF934A208210120FFF79AF9DD
:101DD0003048C278012309211846FFF771F9FEF750
:101DE0002BFD092802D1FEF73BFE00E0CCE700BF47
:101DF00000E0BCE700BF00E000BF00BFFEF7F4FA60
:101E00001D4800F0ABF8254800781B49C978884286
:101E10000ED12248407818490979884208D11F48D4
:101E2000807815494979884202D101201C490870FF
:101E300014E00F48006808B9012000E000200C49B8
:101E400008600120FFF774FBFEF7F6FC022805D1BD
:101E50000020134908700649086006E01148007820
:101E600018B10F4800780028E3D100BFECE400006F
:101E7000B081214211000020050000201400002044
:101E800074656D703A00000068756D6964697479F5
:101E90003A000000000000202E0000000B0000208F
:101EA000180000201700002010B50246012000E0B5
:101EB00050430B1EA1F10104E1B2F9D110BD0000A5
:101EC0002DE9F041074600250024A04605260A25F5
:101ED000B8F1810F02DD00BFB01CC6B231464046EA
:101EE000FEF738FFF7B1002407E004EB05111A4AAA
:101EF000505CFFF7D5FA601CC4B2102CF5DB701CE7
:101F0000C1B24046FEF726FF002408E004EB0511AD
:101F10001031114A505CFFF7C3FA601CC4B2102C98
:101F2000F4DB16E0002404E00020FFF7B9FA601C9F
:101F3000C4B2102CF8DB701CC1B24046FEF70AFF99
:101F4000002404E00020FFF7ABFA601CC4B2102CA0
:101F5000F8DBBDE8F08100003400002070B50446D5
:101F600020780A2190FBF1F03030C5B22A460021DA
:101F70001820FEF79FFF20780A2190FBF1F201FB69
:101F800012003030C5B22A4600212020FEF792FF11
:101F900060780A2190FBF1F03030C5B22A4600216A
:101FA0003820FEF787FF60780A2190FBF1F201FBF1
:101FB00012003030C5B22A4600214020FEF77AFFD9
:101FC000A0780A2190FBF1F03030C5B22A460021FA
:101FD0005820FEF76FFFA0780A2190FBF1F201FB79
:101FE00012003030C5B22A4600216020FEF762FFA1
:101FF000E0780A2190FBF1F03030C5B22A46032187
:102000001020FEF78DFFE0780A2190FBF1F201FB32
:1020100012003030C5B22A4603211C20FEF780FF93
:102020003A2203212820FEF77BFF20790A2190FB2A
:10203000F1F03030C5B22A4603213420FEF770FF9C
:1020400020790A2190FBF1F201FB12003030C5B279
:102050002A4603214020FEF763FF3A2203214C2049
:10206000FEF75EFF60790A2190FBF1F03030C5B2D7
:102070002A4603215820FEF753FF60790A2190FB7E
:10208000F1F201FB12003030C5B22A460321642070
:10209000FEF746FF70BD70B5044620780A2190FB1C
:1020A000F1F03030C5B22A4603211020FEF738FF88
:1020B00020780A2190FBF1F201FB12003030C5B20A
:1020C0002A4603211C20FEF72BFF3A220321282059
:1020D000FEF726FF60780A2190FBF1F03030C5B2A0
:1020E0002A4603213420FEF71BFF60780A2190FB6B
:1020F000F1F201FB12003030C5B22A460321402024
:10210000FEF70EFF3A2203214C20FEF709FFA078CC
:102110000A2190FBF1F03030C5B22A460321582045
:10212000FEF7FEFEA0780A2190FBF1F201FB1200FF
:102130003030C5B22A4603216420FEF7F1FE70BD9F
:10214000000000000000000000000000000000008F
:10215000000000F800000000000000333000000024
:1021600000100C06100C060000000000000000002B
:1021700040C07840C0784000043F04043F0404009D
:10218000007088FC08300000001820FF211E0000AD
:10219000F008F000E018000000211C031E211E00C2
:1021A00000F00888700000001E2123241927211048
:1021B00010160E00000000000000000000000000EB
:1021C000000000E018040200000000071820400092
:1021D00000020418E0000000004020180700000082
:1021E000404080F0804040000202010F01020200E6
:1021F000000000F0000000000101011F01010100CA
:10220000000000000000000080B07000000000002E
:1022100000000000000000000001010101010101B7
:10222000000000000000000000303000000000004E
:102230000000000080601804006018060100000023
:1022400000E010080810E000000F102020100F0020
:10225000001010F8000000000020203F20200000A7
:1022600000700808088870000030282422213000FF
:1022700000300888884830000018202020110E0007
:102280000000C02010F8000000070424243F2400B0
:1022900000F80888880808000019212020110E0085
:1022A00000E0108888180000000F112020110E0097
:1022B00000380808C83808000000003F000000008F
:1022C0000070880808887000001C222121221C0050
:1022D00000E010080810E0000000312222110F0079
:1022E000000000C0C000000000000030300000000E
:1022F000000000800000000000008060000000007E
:102300000000804020100800000102040810200096
:1023100040404040404040000404040404040400E1
:102320000008102040800000002010080402010076
:10233000007048080808F000000000303601000076
:10234000C030C828E810E0000718272423140B0029
:102350000000C038E0000000203C230202273820A3
:1023600008F8888888700000203F202020110E0087
:10237000C03008080808380007182020201008007E
:1023800008F808080810E000203F202020100F0067
:1023900008F88888E8081000203F20202320180033
:1023A00008F88888E8081000203F2000030000009B
:1023B000C03008080838000007182020221E02003C
:1023C00008F808000008F808203F210101213F20FB
:1023D000000808F8080800000020203F2020000026
:1023E00000000808F8080800C08080807F00000016
:1023F00008F888C028180800203F2001263820004F
:1024000008F8080000000000203F202020203000B5
:1024100008F8F800F8F80800203F003F003F2000CF
:1024200008F830C00008F808203F200007183F00D7
:10243000E01008080810E0000F10202020100F0006
:1024400008F808080808F000203F210101010000F9
:10245000E01008080810E0000F18242438504F003E
:1024600008F8888888887000203F2000030C3020FE
:1024700000708808080838000038202121221C003C
:10248000180808F8080818000000203F2000000085
:1024900008F808000008F808001F202020201F006E
:1024A0000878880000C83808000007380E010000CE
:1024B000F80800F80008F800033C0700073C030098
:1024C000081868808068180820302C03032C3020FE
:1024D0000838C800C83808000000203F200000006D
:1024E00010080808C83808002038262120201800C5
:1024F000000000FE020202000000007F4040400099
:10250000000C30C000000000000000010638C000D0
:1025100000020202FE000000004040407F00000078
:10252000000004020202040000000000000000009D
:10253000000000000000000080808080808080809B
:102540000002020400000000000000000000000083
:1025500000008080808000000019242222223F2079
:1025600008F8008080000000003F112020110E00BC
:102570000000008080800000000E1120202011004B
:10258000000000808088F800000E112020103F20FD
:102590000000808080800000001F22222222130081
:1025A000008080F0888888180020203F20200000CC
:1025B0000000808080808000006B94949493600081
:1025C00008F8008080800000203F210000203F208C
:1025D00000809898000000000020203F202000008C
:1025E000000000809898000000C08080807F00007C
:1025F00008F8000080808000203F24022D30200059
:10260000000808F8000000000020203F2020000003
:102610008080808080808000203F20003F20003F1D
:102620008080008080800000203F210000203F202B
:102630000000808080800000001F202020201F00DC
:10264000808000808000000080FFA12020110E000B
:102650000000008080808000000E112020A0FF80FC
:10266000808080008080800020203F2120000100A9
:1026700000008080808080000033242424241900FE
:10268000008080E0808000000000001F202000000B
:102690008080000000808000001F202020103F204C
:1026A000808080000080808000010E3008060100DC
:1026B00080800080008080800F300C030C300F0081
:1026C00000808000808080000020312E0E312000AC
:1026D000808080000080808080818E7018060100DC
:1026E00000808080808080000021302C22213000FA
:1026F00000000000807C020200000000003F40401B
:1027000000000000FF00000000000000FF000000CB
:102710000002027C800000000040403F00000000FA
:102720000006010102020404000000000000000095
:102730005027000800000020F8020000A001000857
:1027400018290008F802002000040000DC1400082A
:10275000012184A24A0410090102030406070809A2
:1027600027E010080810E0270F102020100F541049
:1027700010F83620203F2020277008080888701F96
:10278000302824222130081D08888848083718205E
:102790002020110E3BC0203227070424243F241A96
:1027A000F8202308084B19212036E0108888184BA0
:1027B0000F11101E380808C8382021523F1A702EF9
:1027C00029602F1C222121221C304990111D312209
:1027D00022119029601C0808E8155320C01A070A26
:1027E000500820212121110807300980C0602020D5
:1027F00060C0803CFEFF01DC1BFFFE052809070EC0
:10280000181010180E07132D404040C0547173FF6C
:10281000FF1E1010101F1F0529471A40D159481BD1
:102820000303772C60301F611D181C1211222B101E
:102830001E8B7AC023111B01013E2C182FE70D2B94
:102840000E0E224B180F91294D3AE06E380BC0A0A6
:1028500098848380FFFF8080331931296E312AE00C
:102860006C1901411A3FDF2C0818F0312B070B4877
:102870001B1C0F7F29D829922AE0F57CFCFF21251B
:102880001C01070CD83B10082529FB29252A60913B
:1028900029587A18835B1F1F8B492439B6180B837C
:1028A000CF6C1810303068CF836C8B0F08B539D9D6
:1028B0003A20D9300B1F3F604040402010FFFE7B84
:1028C0000C1C6B0110FC1C1C1C0C1D2018C74401A7
:1028D0002AFC0522041D04040407042B04FF051A26
:1028E0000411215BFE2201295E3E8040300F02016F
:1028F0006442827F4BFE8201291F411AFF8C29010D
:1029000042FF17C4EAD4C2C8D5600C303132333428
:0829100035363738393A000072
:0400000508000145A9
:00000001FF
